{
  "contractName": "StakingPool",
  "abi": [
    {
      "inputs": [],
      "name": "currentRound",
      "outputs": [
        {
          "internalType": "uint256",
          "name": "",
          "type": "uint256"
        }
      ],
      "stateMutability": "view",
      "type": "function"
    },
    {
      "inputs": [],
      "name": "keepBalance",
      "outputs": [
        {
          "internalType": "uint256",
          "name": "",
          "type": "uint256"
        }
      ],
      "stateMutability": "view",
      "type": "function"
    },
    {
      "inputs": [],
      "name": "keepRandomBeaconOperatorContract",
      "outputs": [
        {
          "internalType": "address",
          "name": "",
          "type": "address"
        }
      ],
      "stateMutability": "view",
      "type": "function"
    },
    {
      "inputs": [],
      "name": "keepTokenContract",
      "outputs": [
        {
          "internalType": "address",
          "name": "",
          "type": "address"
        }
      ],
      "stateMutability": "view",
      "type": "function"
    },
    {
      "inputs": [],
      "name": "previousRoundReward",
      "outputs": [
        {
          "internalType": "uint256",
          "name": "",
          "type": "uint256"
        }
      ],
      "stateMutability": "view",
      "type": "function"
    },
    {
      "inputs": [
        {
          "internalType": "uint256",
          "name": "",
          "type": "uint256"
        }
      ],
      "name": "round_data",
      "outputs": [
        {
          "internalType": "uint256",
          "name": "totalStakedAmount",
          "type": "uint256"
        },
        {
          "internalType": "uint256",
          "name": "totalRoundReward",
          "type": "uint256"
        },
        {
          "internalType": "uint256",
          "name": "balanceRoundReward",
          "type": "uint256"
        },
        {
          "internalType": "uint256",
          "name": "balanceStakedAmount",
          "type": "uint256"
        },
        {
          "internalType": "uint256",
          "name": "totalUsersPooled",
          "type": "uint256"
        },
        {
          "internalType": "bool",
          "name": "withdrawAllowed",
          "type": "bool"
        },
        {
          "internalType": "bool",
          "name": "depositAllowed",
          "type": "bool"
        }
      ],
      "stateMutability": "view",
      "type": "function"
    },
    {
      "inputs": [
        {
          "internalType": "uint256",
          "name": "",
          "type": "uint256"
        },
        {
          "internalType": "address",
          "name": "",
          "type": "address"
        }
      ],
      "name": "round_user_mapping",
      "outputs": [
        {
          "internalType": "uint256",
          "name": "deposit",
          "type": "uint256"
        },
        {
          "internalType": "uint256",
          "name": "timestamp",
          "type": "uint256"
        },
        {
          "internalType": "bool",
          "name": "rewardWithdrawn",
          "type": "bool"
        }
      ],
      "stateMutability": "view",
      "type": "function"
    },
    {
      "inputs": [],
      "name": "skEEP",
      "outputs": [
        {
          "internalType": "address",
          "name": "",
          "type": "address"
        }
      ],
      "stateMutability": "view",
      "type": "function"
    },
    {
      "inputs": [],
      "name": "stakingPoolContract",
      "outputs": [
        {
          "internalType": "address",
          "name": "",
          "type": "address"
        }
      ],
      "stateMutability": "view",
      "type": "function"
    },
    {
      "inputs": [],
      "name": "tokenStakingContract",
      "outputs": [
        {
          "internalType": "address",
          "name": "",
          "type": "address"
        }
      ],
      "stateMutability": "view",
      "type": "function"
    },
    {
      "inputs": [
        {
          "internalType": "address",
          "name": "",
          "type": "address"
        }
      ],
      "name": "user_details",
      "outputs": [
        {
          "internalType": "uint256",
          "name": "totalUserReward",
          "type": "uint256"
        },
        {
          "internalType": "uint256",
          "name": "totalUserStake",
          "type": "uint256"
        },
        {
          "internalType": "bool",
          "name": "staked",
          "type": "bool"
        }
      ],
      "stateMutability": "view",
      "type": "function"
    },
    {
      "inputs": [
        {
          "internalType": "address",
          "name": "user",
          "type": "address"
        },
        {
          "internalType": "uint256",
          "name": "round",
          "type": "uint256"
        }
      ],
      "name": "transferRoundReward",
      "outputs": [],
      "stateMutability": "nonpayable",
      "type": "function"
    },
    {
      "inputs": [
        {
          "internalType": "address",
          "name": "user",
          "type": "address"
        },
        {
          "internalType": "uint256",
          "name": "round",
          "type": "uint256"
        }
      ],
      "name": "getRoundReward",
      "outputs": [
        {
          "internalType": "uint256",
          "name": "",
          "type": "uint256"
        }
      ],
      "stateMutability": "view",
      "type": "function"
    },
    {
      "inputs": [
        {
          "internalType": "address",
          "name": "user",
          "type": "address"
        },
        {
          "internalType": "uint256",
          "name": "amount",
          "type": "uint256"
        }
      ],
      "name": "depositStake",
      "outputs": [],
      "stateMutability": "nonpayable",
      "type": "function"
    },
    {
      "inputs": [
        {
          "internalType": "address",
          "name": "user",
          "type": "address"
        }
      ],
      "name": "enterNextRound",
      "outputs": [],
      "stateMutability": "nonpayable",
      "type": "function"
    },
    {
      "inputs": [
        {
          "internalType": "uint256",
          "name": "_newReward",
          "type": "uint256"
        }
      ],
      "name": "setLatestRoundReward",
      "outputs": [],
      "stateMutability": "nonpayable",
      "type": "function"
    },
    {
      "inputs": [
        {
          "internalType": "address",
          "name": "_newPoolContract",
          "type": "address"
        }
      ],
      "name": "setNewStakingPoolContract",
      "outputs": [],
      "stateMutability": "nonpayable",
      "type": "function"
    },
    {
      "inputs": [
        {
          "internalType": "uint256",
          "name": "ongoingRoundReward",
          "type": "uint256"
        }
      ],
      "name": "endCurrentRound",
      "outputs": [],
      "stateMutability": "nonpayable",
      "type": "function"
    },
    {
      "inputs": [],
      "name": "startNewRound",
      "outputs": [],
      "stateMutability": "nonpayable",
      "type": "function"
    },
    {
      "inputs": [
        {
          "internalType": "address",
          "name": "operator",
          "type": "address"
        },
        {
          "internalType": "bytes",
          "name": "extraData",
          "type": "bytes"
        },
        {
          "internalType": "uint256",
          "name": "amount",
          "type": "uint256"
        }
      ],
      "name": "submitStake",
      "outputs": [],
      "stateMutability": "nonpayable",
      "type": "function"
    },
    {
      "inputs": [
        {
          "internalType": "address",
          "name": "addr",
          "type": "address"
        },
        {
          "internalType": "uint256",
          "name": "amt",
          "type": "uint256"
        }
      ],
      "name": "withdraw",
      "outputs": [],
      "stateMutability": "nonpayable",
      "type": "function"
    }
  ],
  "bytecode": "0x608060405234801561001057600080fd5b50611a1d806100206000396000f3fe608060405234801561001057600080fd5b50600436106101375760003560e01c806389331c8f116100b8578063b580732c1161007c578063b580732c146104b8578063b98b99df1461059d578063bd85948c1461060f578063e128a99114610619578063ef9dfa5714610681578063f3fef3a3146106b557610137565b806389331c8f146103b65780638a09bbc8146103fa5780638a19c8bc1461042e57806394ef09f61461044c578063a96b0d681461046a57610137565b80635410f365116100ff5780635410f3651461023457806354cae56c146102825780636b56be94146102e45780636cf5421214610312578063815a53d81461034657610137565b806312aa484b1461013c5780631c8841591461016a5780632a9535ff1461019e57806342857852146101d257806352917ed714610216575b600080fd5b6101686004803603602081101561015257600080fd5b8101908080359060200190929190505050610703565b005b61017261076b565b604051808273ffffffffffffffffffffffffffffffffffffffff16815260200191505060405180910390f35b6101a6610791565b604051808273ffffffffffffffffffffffffffffffffffffffff16815260200191505060405180910390f35b610214600480360360208110156101e857600080fd5b81019080803573ffffffffffffffffffffffffffffffffffffffff1690602001909291905050506107b7565b005b61021e6107fb565b6040518082815260200191505060405180910390f35b6102806004803603604081101561024a57600080fd5b81019080803573ffffffffffffffffffffffffffffffffffffffff16906020019092919080359060200190929190505050610801565b005b6102ce6004803603604081101561029857600080fd5b81019080803573ffffffffffffffffffffffffffffffffffffffff16906020019092919080359060200190929190505050610a72565b6040518082815260200191505060405180910390f35b610310600480360360208110156102fa57600080fd5b8101908080359060200190929190505050610b45565b005b61031a610b74565b604051808273ffffffffffffffffffffffffffffffffffffffff16815260200191505060405180910390f35b6103726004803603602081101561035c57600080fd5b8101908080359060200190929190505050610b98565b604051808881526020018781526020018681526020018581526020018481526020018315158152602001821515815260200197505050505050505060405180910390f35b6103f8600480360360208110156103cc57600080fd5b81019080803573ffffffffffffffffffffffffffffffffffffffff169060200190929190505050610c01565b005b610402610efa565b604051808273ffffffffffffffffffffffffffffffffffffffff16815260200191505060405180910390f35b610436610f20565b6040518082815260200191505060405180910390f35b610454610f26565b6040518082815260200191505060405180910390f35b6104b66004803603604081101561048057600080fd5b81019080803573ffffffffffffffffffffffffffffffffffffffff16906020019092919080359060200190929190505050610f2c565b005b61059b600480360360608110156104ce57600080fd5b81019080803573ffffffffffffffffffffffffffffffffffffffff1690602001909291908035906020019064010000000081111561050b57600080fd5b82018360208201111561051d57600080fd5b8035906020019184600183028401116401000000008311171561053f57600080fd5b91908080601f016020809104026020016040519081016040528093929190818152602001838380828437600081840152601f19601f8201169050808301925050505050505091929192908035906020019092919050505061118b565b005b6105e9600480360360408110156105b357600080fd5b8101908080359060200190929190803573ffffffffffffffffffffffffffffffffffffffff1690602001909291905050506113cd565b604051808481526020018381526020018215158152602001935050505060405180910390f35b61061761141a565b005b61065b6004803603602081101561062f57600080fd5b81019080803573ffffffffffffffffffffffffffffffffffffffff16906020019092919050505061152d565b604051808481526020018381526020018215158152602001935050505060405180910390f35b610689611564565b604051808273ffffffffffffffffffffffffffffffffffffffff16815260200191505060405180910390f35b610701600480360360408110156106cb57600080fd5b81019080803573ffffffffffffffffffffffffffffffffffffffff1690602001909291908035906020019092919050505061158a565b005b80600681905550600160086004548154811061071b57fe5b906000526020600020906006020160050160006101000a81548160ff0219169083151502179055508060086004548154811061075357fe5b90600052602060002090600602016001018190555050565b600260009054906101000a900473ffffffffffffffffffffffffffffffffffffffff1681565b600760009054906101000a900473ffffffffffffffffffffffffffffffffffffffff1681565b80600760006101000a81548173ffffffffffffffffffffffffffffffffffffffff021916908373ffffffffffffffffffffffffffffffffffffffff16021790555050565b60065481565b600160009054906101000a900473ffffffffffffffffffffffffffffffffffffffff1673ffffffffffffffffffffffffffffffffffffffff166323b872dd8330846040518463ffffffff1660e01b8152600401808473ffffffffffffffffffffffffffffffffffffffff1681526020018373ffffffffffffffffffffffffffffffffffffffff1681526020018281526020019350505050602060405180830381600087803b1580156108b257600080fd5b505af11580156108c6573d6000803e3d6000fd5b505050506040513d60208110156108dc57600080fd5b8101908080519060200190929190505050506000600a60008473ffffffffffffffffffffffffffffffffffffffff1673ffffffffffffffffffffffffffffffffffffffff16815260200190815260200160002060010154146109d85761098d81600a60008573ffffffffffffffffffffffffffffffffffffffff1673ffffffffffffffffffffffffffffffffffffffff1681526020019081526020016000206001015461165d90919063ffffffff16565b600a60008473ffffffffffffffffffffffffffffffffffffffff1673ffffffffffffffffffffffffffffffffffffffff16815260200190815260200160002060010181905550610a6e565b60405180606001604052806000815260200182815260200160001515815250600a60008473ffffffffffffffffffffffffffffffffffffffff1673ffffffffffffffffffffffffffffffffffffffff168152602001908152602001600020600082015181600001556020820151816001015560408201518160020160006101000a81548160ff0219169083151502179055509050505b5050565b60008060098381548110610a8257fe5b9060005260206000200160008573ffffffffffffffffffffffffffffffffffffffff1673ffffffffffffffffffffffffffffffffffffffff168152602001908152602001600020600001549050600060088481548110610ade57fe5b90600052602060002090600602016000015490506000610b3782610b298560088981548110610b0957fe5b9060005260206000209060060201600101546116e590919063ffffffff16565b61176b90919063ffffffff16565b905080935050505092915050565b80600860045481548110610b5557fe5b9060005260206000209060060201600101819055508060068190555050565b60008054906101000a900473ffffffffffffffffffffffffffffffffffffffff1681565b60088181548110610ba557fe5b90600052602060002090600602016000915090508060000154908060010154908060020154908060030154908060040154908060050160009054906101000a900460ff16908060050160019054906101000a900460ff16905087565b60001515600a60008373ffffffffffffffffffffffffffffffffffffffff1673ffffffffffffffffffffffffffffffffffffffff16815260200190815260200160002060020160009054906101000a900460ff16151514610cca576040517f08c379a000000000000000000000000000000000000000000000000000000000815260040180806020018281038252600e8152602001807f416c7265616479207374616b656400000000000000000000000000000000000081525060200191505060405180910390fd5b610d3f600a60008373ffffffffffffffffffffffffffffffffffffffff1673ffffffffffffffffffffffffffffffffffffffff16815260200190815260200160002060010154600860045481548110610d1f57fe5b90600052602060002090600602016000015461165d90919063ffffffff16565b600860045481548110610d4e57fe5b906000526020600020906006020160000181905550610dd8600a60008373ffffffffffffffffffffffffffffffffffffffff1673ffffffffffffffffffffffffffffffffffffffff16815260200190815260200160002060010154600860045481548110610db857fe5b90600052602060002090600602016003015461165d90919063ffffffff16565b600860045481548110610de757fe5b906000526020600020906006020160030181905550600a60008273ffffffffffffffffffffffffffffffffffffffff1673ffffffffffffffffffffffffffffffffffffffff16815260200190815260200160002060010154600960045481548110610e4e57fe5b9060005260206000200160008373ffffffffffffffffffffffffffffffffffffffff1673ffffffffffffffffffffffffffffffffffffffff168152602001908152602001600020600001819055506001600a60008373ffffffffffffffffffffffffffffffffffffffff1673ffffffffffffffffffffffffffffffffffffffff16815260200190815260200160002060020160006101000a81548160ff02191690831515021790555050565b600360009054906101000a900473ffffffffffffffffffffffffffffffffffffffff1681565b60045481565b60055481565b600060098281548110610f3b57fe5b9060005260206000200160008473ffffffffffffffffffffffffffffffffffffffff1673ffffffffffffffffffffffffffffffffffffffff168152602001908152602001600020600001549050600060088381548110610f9757fe5b90600052602060002090600602016000015490506000610ff082610fe28560088881548110610fc257fe5b9060005260206000209060060201600101546116e590919063ffffffff16565b61176b90919063ffffffff16565b9050611023816008868154811061100357fe5b9060005260206000209060060201600201546117b590919063ffffffff16565b6008858154811061103057fe5b90600052602060002090600602016002018190555060016009858154811061105457fe5b9060005260206000200160008773ffffffffffffffffffffffffffffffffffffffff1673ffffffffffffffffffffffffffffffffffffffff16815260200190815260200160002060020160006101000a81548160ff021916908315150217905550600160009054906101000a900473ffffffffffffffffffffffffffffffffffffffff1673ffffffffffffffffffffffffffffffffffffffff1663a9059cbb86836040518363ffffffff1660e01b8152600401808373ffffffffffffffffffffffffffffffffffffffff16815260200182815260200192505050602060405180830381600087803b15801561114857600080fd5b505af115801561115c573d6000803e3d6000fd5b505050506040513d602081101561117257600080fd5b8101908080519060200190929190505050505050505050565b600160009054906101000a900473ffffffffffffffffffffffffffffffffffffffff1673ffffffffffffffffffffffffffffffffffffffff1663cae9ca5160008054906101000a900473ffffffffffffffffffffffffffffffffffffffff1683856040518463ffffffff1660e01b8152600401808473ffffffffffffffffffffffffffffffffffffffff16815260200183815260200180602001828103825283818151815260200191508051906020019080838360005b8381101561125d578082015181840152602081019050611242565b50505050905090810190601f16801561128a5780820380516001836020036101000a031916815260200191505b50945050505050602060405180830381600087803b1580156112ab57600080fd5b505af11580156112bf573d6000803e3d6000fd5b505050506040513d60208110156112d557600080fd5b81019080805190602001909291905050505060008054906101000a900473ffffffffffffffffffffffffffffffffffffffff1673ffffffffffffffffffffffffffffffffffffffff1663f165478384600360009054906101000a900473ffffffffffffffffffffffffffffffffffffffff166040518363ffffffff1660e01b8152600401808373ffffffffffffffffffffffffffffffffffffffff1681526020018273ffffffffffffffffffffffffffffffffffffffff16815260200192505050600060405180830381600087803b1580156113b057600080fd5b505af11580156113c4573d6000803e3d6000fd5b50505050505050565b600982815481106113da57fe5b90600052602060002001602052806000526040600020600091509150508060000154908060010154908060020160009054906101000a900460ff16905083565b60006008805490501415611435576000600481905550611442565b6001600454016004819055505b61144a611985565b6040518060e0016040528060008152602001600081526020016000815260200160008152602001600081526020016000151581526020016001151581525090506008819080600181540180825580915050600190039060005260206000209060060201600090919091909150600082015181600001556020820151816001015560408201518160020155606082015181600301556080820151816004015560a08201518160050160006101000a81548160ff02191690831515021790555060c08201518160050160016101000a81548160ff021916908315150217905550505050565b600a6020528060005260406000206000915090508060000154908060010154908060020160009054906101000a900460ff16905083565b600160009054906101000a900473ffffffffffffffffffffffffffffffffffffffff1681565b600160009054906101000a900473ffffffffffffffffffffffffffffffffffffffff1673ffffffffffffffffffffffffffffffffffffffff1663a9059cbb83836040518363ffffffff1660e01b8152600401808373ffffffffffffffffffffffffffffffffffffffff16815260200182815260200192505050602060405180830381600087803b15801561161d57600080fd5b505af1158015611631573d6000803e3d6000fd5b505050506040513d602081101561164757600080fd5b8101908080519060200190929190505050505050565b6000808284019050838110156116db576040517f08c379a000000000000000000000000000000000000000000000000000000000815260040180806020018281038252601b8152602001807f536166654d6174683a206164646974696f6e206f766572666c6f77000000000081525060200191505060405180910390fd5b8091505092915050565b6000808314156116f85760009050611765565b600082840290508284828161170957fe5b0414611760576040517f08c379a00000000000000000000000000000000000000000000000000000000081526004018080602001828103825260218152602001806119c76021913960400191505060405180910390fd5b809150505b92915050565b60006117ad83836040518060400160405280601a81526020017f536166654d6174683a206469766973696f6e206279207a65726f0000000000008152506117ff565b905092915050565b60006117f783836040518060400160405280601e81526020017f536166654d6174683a207375627472616374696f6e206f766572666c6f7700008152506118c5565b905092915050565b600080831182906118ab576040517f08c379a00000000000000000000000000000000000000000000000000000000081526004018080602001828103825283818151815260200191508051906020019080838360005b83811015611870578082015181840152602081019050611855565b50505050905090810190601f16801561189d5780820380516001836020036101000a031916815260200191505b509250505060405180910390fd5b5060008385816118b757fe5b049050809150509392505050565b6000838311158290611972576040517f08c379a00000000000000000000000000000000000000000000000000000000081526004018080602001828103825283818151815260200191508051906020019080838360005b8381101561193757808201518184015260208101905061191c565b50505050905090810190601f1680156119645780820380516001836020036101000a031916815260200191505b509250505060405180910390fd5b5060008385039050809150509392505050565b6040518060e001604052806000815260200160008152602001600081526020016000815260200160008152602001600015158152602001600015158152509056fe536166654d6174683a206d756c7469706c69636174696f6e206f766572666c6f77a2646970667358221220caeacfa022adee16b86bd9b0951360e754275c156bfbcc03241082b8a54c6eb964736f6c63430007010033",
  "immutableReferences": {},
  "source": "pragma solidity >=0.6.0 <0.8.0;\n\nimport \"@openzeppelin/contracts/token/ERC20/IERC20.sol\";\nimport \"@openzeppelin/contracts/math/SafeMath.sol\";\nimport \"./sKEEP.sol\";\nimport \"./StakingPoolStorage.sol\";\nimport \"./Interfaces.sol\";\n\ncontract StakingPool is StakingPoolStorageV1 {\n\n    using SafeMath for uint;\n    \n    function transferRoundReward(address user, uint256 round) public {\n        uint256 _stake = round_user_mapping[round][user].deposit;\n        uint256 _totalStake = round_data[round].totalStakedAmount;\n        uint256 _userReward = round_data[round]\n            .totalRoundReward\n            .mul(_stake)\n            .div(_totalStake);\n        round_data[round].balanceRoundReward = round_data[round]\n            .balanceRoundReward\n            .sub(_userReward);\n        round_user_mapping[round][user].rewardWithdrawn = true;\n        //substract from total user reward\n        IERC20(keepTokenContract).transfer(user, _userReward);\n    }\n\n    function getRoundReward(address user, uint256 round)\n        public\n        view\n        returns (uint256)\n    {\n        uint256 _stake = round_user_mapping[round][user].deposit;\n        uint256 _totalStake = round_data[round].totalStakedAmount;\n        uint256 _userReward = round_data[round]\n            .totalRoundReward\n            .mul(_stake)\n            .div(_totalStake);\n\n        return _userReward;\n    }\n\n    function depositStake(address user, uint256 amount) public {\n        IERC20(keepTokenContract).transferFrom(user, address(this), amount);\n        if (user_details[user].totalUserStake != 0) {\n            user_details[user].totalUserStake = user_details[user]\n                .totalUserStake\n                .add(amount);\n        } else {\n            user_details[user] = UserTotal({\n                totalUserReward: 0,\n                totalUserStake: amount,\n                staked: false\n            });\n        }\n    }\n\n    function enterNextRound(address user) public {\n        require(user_details[user].staked == false, \"Already staked\");\n        round_data[currentRound].totalStakedAmount = round_data[currentRound]\n            .totalStakedAmount\n            .add(user_details[user].totalUserStake);\n        round_data[currentRound].balanceStakedAmount = round_data[currentRound]\n            .balanceStakedAmount\n            .add(user_details[user].totalUserStake);\n        round_user_mapping[currentRound][user].deposit = user_details[user]\n            .totalUserStake;\n        user_details[user].staked = true;\n    }\n\n    function setLatestRoundReward(uint256 _newReward) public {\n        round_data[currentRound].totalRoundReward = _newReward;\n        previousRoundReward = _newReward;\n    }\n\n    function setNewStakingPoolContract(address _newPoolContract) public {\n        stakingPoolContract = _newPoolContract;\n    }\n\n    function endCurrentRound(uint256 ongoingRoundReward) public {\n        previousRoundReward = ongoingRoundReward;\n        round_data[currentRound].withdrawAllowed = true;\n        round_data[currentRound].totalRoundReward = ongoingRoundReward;\n    }\n\n    function startNewRound() public {\n        if (round_data.length == 0) {\n            currentRound = 0;\n        } else {\n            currentRound = currentRound + 1;\n        }\n        Round memory round = Round(0, 0, 0, 0, 0, false, true);\n        round_data.push(round);\n    }\n\n    function submitStake(\n        address operator,\n        // address operator_contract,\n        bytes memory extraData,\n        uint256 amount\n    ) public {\n        // IERC20(keepTokenContract).approve(operator, round_data[currentRound].totalStakedAmount);\n        //send tokens\n        IKeepToken(keepTokenContract).approveAndCall(\n            tokenStakingContract,\n            amount,\n            extraData\n        );\n        // authorize operator contract\n        ITokenStaking(tokenStakingContract).authorizeOperatorContract(\n            operator,\n            keepRandomBeaconOperatorContract\n        );\n    }\n    function withdraw (address addr, uint amt)public {\n        IERC20(keepTokenContract).transfer(addr, amt);\n    }\n}",
  "sourcePath": "/home/manjain/Documents/keep-pods/packages/contracts/src/contracts/StakingPool.sol",
  "compiler": {
    "name": "solc",
    "version": "0.7.1+commit.f4a555be.Emscripten.clang"
  },
  "schemaVersion": "3.2.0",
  "updatedAt": "2021-01-17T21:38:41.368Z",
  "devdoc": {
    "kind": "dev",
    "methods": {},
    "version": 1
  },
  "userdoc": {
    "kind": "user",
    "methods": {},
    "version": 1
  }
}