{
  "contractName": "StakingPoolStorageAdmin",
  "abi": [
    {
      "inputs": [],
      "name": "keepRandomBeaconOperatorContract",
      "outputs": [
        {
          "internalType": "address",
          "name": "",
          "type": "address"
        }
      ],
      "stateMutability": "view",
      "type": "function"
    },
    {
      "inputs": [],
      "name": "keepTokenContract",
      "outputs": [
        {
          "internalType": "address",
          "name": "",
          "type": "address"
        }
      ],
      "stateMutability": "view",
      "type": "function"
    },
    {
      "inputs": [],
      "name": "skEEP",
      "outputs": [
        {
          "internalType": "address",
          "name": "",
          "type": "address"
        }
      ],
      "stateMutability": "view",
      "type": "function"
    },
    {
      "inputs": [],
      "name": "tokenStakingContract",
      "outputs": [
        {
          "internalType": "address",
          "name": "",
          "type": "address"
        }
      ],
      "stateMutability": "view",
      "type": "function"
    }
  ],
  "bytecode": "0x608060405234801561001057600080fd5b506101ed806100206000396000f3fe608060405234801561001057600080fd5b506004361061004c5760003560e01c80631c884159146100515780636cf54212146100855780638a09bbc8146100b9578063ef9dfa57146100ed575b600080fd5b610059610121565b604051808273ffffffffffffffffffffffffffffffffffffffff16815260200191505060405180910390f35b61008d610147565b604051808273ffffffffffffffffffffffffffffffffffffffff16815260200191505060405180910390f35b6100c161016b565b604051808273ffffffffffffffffffffffffffffffffffffffff16815260200191505060405180910390f35b6100f5610191565b604051808273ffffffffffffffffffffffffffffffffffffffff16815260200191505060405180910390f35b600260009054906101000a900473ffffffffffffffffffffffffffffffffffffffff1681565b60008054906101000a900473ffffffffffffffffffffffffffffffffffffffff1681565b600360009054906101000a900473ffffffffffffffffffffffffffffffffffffffff1681565b600160009054906101000a900473ffffffffffffffffffffffffffffffffffffffff168156fea2646970667358221220924c8feb8eae41692a7e39f9b1a37c41e54075c927e93fc3680215a06db9391c64736f6c63430007010033",
  "immutableReferences": {},
  "source": "pragma solidity >=0.6.0 <0.8.0;\n\ncontract StakingPoolStorageAdmin {\n    // address public tokenStakingContract = 0x234d2182B29c6a64ce3ab6940037b5C8FdAB608e;\n    // address public keepTokenContract = 0x343d3DDA00415289CDD4E8030F63a4A5a2548ff9;\n    // address public skEEP = 0xaC437A49AB06Ae631d5B2600169a4202BCDe4419;\n    // address public keepRandomBeaconOperatorContract = 0xC8337a94a50d16191513dEF4D1e61A6886BF410f;\n    address public tokenStakingContract;\n    address public keepTokenContract;\n    address public skEEP;\n    address public keepRandomBeaconOperatorContract;\n}\n\ncontract StakingPoolStorageV1 is StakingPoolStorageAdmin{\n    uint256 public currentRound;\n\n    uint256 public keepBalance;\n\n    uint256 public previousRoundReward;\n\n    address public stakingPoolContract;\n    \n    struct UserTotal {\n        uint256 totalUserReward;\n        uint256 totalUserStake;\n        bool staked;\n    }\n\n    struct UserRound {\n        uint256 deposit;\n        uint256 timestamp;\n        bool rewardWithdrawn;\n    }\n\n    struct Round {\n        uint256 totalStakedAmount;\n        uint256 totalRoundReward;\n        uint256 balanceRoundReward;\n        uint256 balanceStakedAmount;\n        uint256 totalUsersPooled; // Number of Users Deposited\n        bool withdrawAllowed;\n        bool depositAllowed;\n    }\n\n    Round[] public round_data;\n    \n    mapping(address => UserRound)[] public round_user_mapping;\n\n    mapping(address => UserTotal) public user_details;\n}",
  "sourcePath": "/home/manjain/Documents/keep-pods/packages/contracts/src/contracts/StakingPoolStorage.sol",
  "compiler": {
    "name": "solc",
    "version": "0.7.1+commit.f4a555be.Emscripten.clang"
  },
  "schemaVersion": "3.2.0",
  "updatedAt": "2021-01-17T21:38:41.374Z",
  "devdoc": {
    "kind": "dev",
    "methods": {},
    "version": 1
  },
  "userdoc": {
    "kind": "user",
    "methods": {},
    "version": 1
  }
}