{
  "contractName": "StakingPoolStorageV1",
  "abi": [
    {
      "inputs": [],
      "name": "currentRound",
      "outputs": [
        {
          "internalType": "uint256",
          "name": "",
          "type": "uint256"
        }
      ],
      "stateMutability": "view",
      "type": "function"
    },
    {
      "inputs": [],
      "name": "keepBalance",
      "outputs": [
        {
          "internalType": "uint256",
          "name": "",
          "type": "uint256"
        }
      ],
      "stateMutability": "view",
      "type": "function"
    },
    {
      "inputs": [],
      "name": "keepRandomBeaconOperatorContract",
      "outputs": [
        {
          "internalType": "address",
          "name": "",
          "type": "address"
        }
      ],
      "stateMutability": "view",
      "type": "function"
    },
    {
      "inputs": [],
      "name": "keepTokenContract",
      "outputs": [
        {
          "internalType": "address",
          "name": "",
          "type": "address"
        }
      ],
      "stateMutability": "view",
      "type": "function"
    },
    {
      "inputs": [],
      "name": "previousRoundReward",
      "outputs": [
        {
          "internalType": "uint256",
          "name": "",
          "type": "uint256"
        }
      ],
      "stateMutability": "view",
      "type": "function"
    },
    {
      "inputs": [
        {
          "internalType": "uint256",
          "name": "",
          "type": "uint256"
        }
      ],
      "name": "round_data",
      "outputs": [
        {
          "internalType": "uint256",
          "name": "totalStakedAmount",
          "type": "uint256"
        },
        {
          "internalType": "uint256",
          "name": "totalRoundReward",
          "type": "uint256"
        },
        {
          "internalType": "uint256",
          "name": "balanceRoundReward",
          "type": "uint256"
        },
        {
          "internalType": "uint256",
          "name": "balanceStakedAmount",
          "type": "uint256"
        },
        {
          "internalType": "uint256",
          "name": "totalUsersPooled",
          "type": "uint256"
        },
        {
          "internalType": "bool",
          "name": "withdrawAllowed",
          "type": "bool"
        },
        {
          "internalType": "bool",
          "name": "depositAllowed",
          "type": "bool"
        }
      ],
      "stateMutability": "view",
      "type": "function"
    },
    {
      "inputs": [
        {
          "internalType": "uint256",
          "name": "",
          "type": "uint256"
        },
        {
          "internalType": "address",
          "name": "",
          "type": "address"
        }
      ],
      "name": "round_user_mapping",
      "outputs": [
        {
          "internalType": "uint256",
          "name": "deposit",
          "type": "uint256"
        },
        {
          "internalType": "uint256",
          "name": "timestamp",
          "type": "uint256"
        },
        {
          "internalType": "bool",
          "name": "rewardWithdrawn",
          "type": "bool"
        }
      ],
      "stateMutability": "view",
      "type": "function"
    },
    {
      "inputs": [],
      "name": "skEEP",
      "outputs": [
        {
          "internalType": "address",
          "name": "",
          "type": "address"
        }
      ],
      "stateMutability": "view",
      "type": "function"
    },
    {
      "inputs": [],
      "name": "stakingPoolContract",
      "outputs": [
        {
          "internalType": "address",
          "name": "",
          "type": "address"
        }
      ],
      "stateMutability": "view",
      "type": "function"
    },
    {
      "inputs": [],
      "name": "tokenStakingContract",
      "outputs": [
        {
          "internalType": "address",
          "name": "",
          "type": "address"
        }
      ],
      "stateMutability": "view",
      "type": "function"
    },
    {
      "inputs": [
        {
          "internalType": "address",
          "name": "",
          "type": "address"
        }
      ],
      "name": "user_details",
      "outputs": [
        {
          "internalType": "uint256",
          "name": "totalUserReward",
          "type": "uint256"
        },
        {
          "internalType": "uint256",
          "name": "totalUserStake",
          "type": "uint256"
        },
        {
          "internalType": "bool",
          "name": "staked",
          "type": "bool"
        }
      ],
      "stateMutability": "view",
      "type": "function"
    }
  ],
  "bytecode": "0x608060405234801561001057600080fd5b50610547806100206000396000f3fe608060405234801561001057600080fd5b50600436106100a95760003560e01c80638a09bbc8116100715780638a09bbc8146101d85780638a19c8bc1461020c57806394ef09f61461022a578063b98b99df14610248578063e128a991146102ba578063ef9dfa5714610322576100a9565b80631c884159146100ae5780632a9535ff146100e257806352917ed7146101165780636cf5421214610134578063815a53d814610168575b600080fd5b6100b6610356565b604051808273ffffffffffffffffffffffffffffffffffffffff16815260200191505060405180910390f35b6100ea61037c565b604051808273ffffffffffffffffffffffffffffffffffffffff16815260200191505060405180910390f35b61011e6103a2565b6040518082815260200191505060405180910390f35b61013c6103a8565b604051808273ffffffffffffffffffffffffffffffffffffffff16815260200191505060405180910390f35b6101946004803603602081101561017e57600080fd5b81019080803590602001909291905050506103cc565b604051808881526020018781526020018681526020018581526020018481526020018315158152602001821515815260200197505050505050505060405180910390f35b6101e0610435565b604051808273ffffffffffffffffffffffffffffffffffffffff16815260200191505060405180910390f35b61021461045b565b6040518082815260200191505060405180910390f35b610232610461565b6040518082815260200191505060405180910390f35b6102946004803603604081101561025e57600080fd5b8101908080359060200190929190803573ffffffffffffffffffffffffffffffffffffffff169060200190929190505050610467565b604051808481526020018381526020018215158152602001935050505060405180910390f35b6102fc600480360360208110156102d057600080fd5b81019080803573ffffffffffffffffffffffffffffffffffffffff1690602001909291905050506104b4565b604051808481526020018381526020018215158152602001935050505060405180910390f35b61032a6104eb565b604051808273ffffffffffffffffffffffffffffffffffffffff16815260200191505060405180910390f35b600260009054906101000a900473ffffffffffffffffffffffffffffffffffffffff1681565b600760009054906101000a900473ffffffffffffffffffffffffffffffffffffffff1681565b60065481565b60008054906101000a900473ffffffffffffffffffffffffffffffffffffffff1681565b600881815481106103d957fe5b90600052602060002090600602016000915090508060000154908060010154908060020154908060030154908060040154908060050160009054906101000a900460ff16908060050160019054906101000a900460ff16905087565b600360009054906101000a900473ffffffffffffffffffffffffffffffffffffffff1681565b60045481565b60055481565b6009828154811061047457fe5b90600052602060002001602052806000526040600020600091509150508060000154908060010154908060020160009054906101000a900460ff16905083565b600a6020528060005260406000206000915090508060000154908060010154908060020160009054906101000a900460ff16905083565b600160009054906101000a900473ffffffffffffffffffffffffffffffffffffffff168156fea2646970667358221220cd53b8db426fcabc6c722f3abf64e537e4e2196ad2d822197ca56a8b33112a4e64736f6c63430007010033",
  "immutableReferences": {},
  "source": "pragma solidity >=0.6.0 <0.8.0;\n\ncontract StakingPoolStorageAdmin {\n    // address public tokenStakingContract = 0x234d2182B29c6a64ce3ab6940037b5C8FdAB608e;\n    // address public keepTokenContract = 0x343d3DDA00415289CDD4E8030F63a4A5a2548ff9;\n    // address public skEEP = 0xaC437A49AB06Ae631d5B2600169a4202BCDe4419;\n    // address public keepRandomBeaconOperatorContract = 0xC8337a94a50d16191513dEF4D1e61A6886BF410f;\n    address public tokenStakingContract;\n    address public keepTokenContract;\n    address public skEEP;\n    address public keepRandomBeaconOperatorContract;\n}\n\ncontract StakingPoolStorageV1 is StakingPoolStorageAdmin{\n    uint256 public currentRound;\n\n    uint256 public keepBalance;\n\n    uint256 public previousRoundReward;\n\n    address public stakingPoolContract;\n    \n    struct UserTotal {\n        uint256 totalUserReward;\n        uint256 totalUserStake;\n        bool staked;\n    }\n\n    struct UserRound {\n        uint256 deposit;\n        uint256 timestamp;\n        bool rewardWithdrawn;\n    }\n\n    struct Round {\n        uint256 totalStakedAmount;\n        uint256 totalRoundReward;\n        uint256 balanceRoundReward;\n        uint256 balanceStakedAmount;\n        uint256 totalUsersPooled; // Number of Users Deposited\n        bool withdrawAllowed;\n        bool depositAllowed;\n    }\n\n    Round[] public round_data;\n    \n    mapping(address => UserRound)[] public round_user_mapping;\n\n    mapping(address => UserTotal) public user_details;\n}",
  "sourcePath": "/home/manjain/Documents/keep-pods/packages/contracts/src/contracts/StakingPoolStorage.sol",
  "compiler": {
    "name": "solc",
    "version": "0.7.1+commit.f4a555be.Emscripten.clang"
  },
  "schemaVersion": "3.2.0",
  "updatedAt": "2021-01-17T21:38:41.375Z",
  "devdoc": {
    "kind": "dev",
    "methods": {},
    "version": 1
  },
  "userdoc": {
    "kind": "user",
    "methods": {},
    "version": 1
  }
}